{
  "_format": "hh-sol-artifact-1",
  "contractName": "legacyProject",
  "sourceName": "contracts/legacyProject.sol",
  "abi": [
    {
      "inputs": [],
      "stateMutability": "nonpayable",
      "type": "constructor"
    },
    {
      "inputs": [
        {
          "internalType": "address",
          "name": "",
          "type": "address"
        }
      ],
      "name": "amountPerPeriod",
      "outputs": [
        {
          "internalType": "uint256",
          "name": "",
          "type": "uint256"
        }
      ],
      "stateMutability": "view",
      "type": "function"
    },
    {
      "inputs": [
        {
          "internalType": "address",
          "name": "",
          "type": "address"
        }
      ],
      "name": "inheritor",
      "outputs": [
        {
          "internalType": "address",
          "name": "",
          "type": "address"
        }
      ],
      "stateMutability": "view",
      "type": "function"
    },
    {
      "inputs": [
        {
          "internalType": "address",
          "name": "owner",
          "type": "address"
        }
      ],
      "name": "inheritorClaim",
      "outputs": [],
      "stateMutability": "nonpayable",
      "type": "function"
    },
    {
      "inputs": [
        {
          "internalType": "address",
          "name": "",
          "type": "address"
        }
      ],
      "name": "intervalTime",
      "outputs": [
        {
          "internalType": "uint256",
          "name": "",
          "type": "uint256"
        }
      ],
      "stateMutability": "view",
      "type": "function"
    },
    {
      "inputs": [
        {
          "internalType": "address",
          "name": "",
          "type": "address"
        }
      ],
      "name": "legacyValue",
      "outputs": [
        {
          "internalType": "uint256",
          "name": "",
          "type": "uint256"
        }
      ],
      "stateMutability": "view",
      "type": "function"
    },
    {
      "inputs": [],
      "name": "ownerWithdraw",
      "outputs": [],
      "stateMutability": "nonpayable",
      "type": "function"
    },
    {
      "inputs": [
        {
          "internalType": "address",
          "name": "",
          "type": "address"
        }
      ],
      "name": "periods",
      "outputs": [
        {
          "internalType": "uint256",
          "name": "",
          "type": "uint256"
        }
      ],
      "stateMutability": "view",
      "type": "function"
    },
    {
      "inputs": [
        {
          "internalType": "uint256",
          "name": "_days",
          "type": "uint256"
        }
      ],
      "name": "resetTimer",
      "outputs": [],
      "stateMutability": "nonpayable",
      "type": "function"
    },
    {
      "inputs": [
        {
          "internalType": "address",
          "name": "_inher",
          "type": "address"
        },
        {
          "internalType": "uint256",
          "name": "_days",
          "type": "uint256"
        },
        {
          "internalType": "uint256",
          "name": "_periods",
          "type": "uint256"
        },
        {
          "internalType": "uint256",
          "name": "_intervalTime",
          "type": "uint256"
        }
      ],
      "name": "setLegacy",
      "outputs": [],
      "stateMutability": "payable",
      "type": "function"
    },
    {
      "inputs": [
        {
          "internalType": "address",
          "name": "",
          "type": "address"
        }
      ],
      "name": "timer",
      "outputs": [
        {
          "internalType": "uint256",
          "name": "",
          "type": "uint256"
        }
      ],
      "stateMutability": "view",
      "type": "function"
    }
  ],
  "bytecode": "0x608060405234801561001057600080fd5b506000600660006101000a81548160ff0219169083151502179055506116cc8061003b6000396000f3fe6080604052600436106100915760003560e01c80637d2b8682116100595780637d2b86821461016c5780638cff544c146101a9578063a35b9e6c146101e6578063a4cd880714610223578063ec45787c1461024c57610091565b806313451505146100965780634126e6fd146100bf5780634311de8f146100db57806372ebdd47146100f257806377d0da761461012f575b600080fd5b3480156100a257600080fd5b506100bd60048036038101906100b8919061103f565b610289565b005b6100d960048036038101906100d49190611068565b6107f5565b005b3480156100e757600080fd5b506100f0610bb4565b005b3480156100fe57600080fd5b506101196004803603810190610114919061103f565b610e3c565b604051610126919061148d565b60405180910390f35b34801561013b57600080fd5b506101566004803603810190610151919061103f565b610e54565b604051610163919061148d565b60405180910390f35b34801561017857600080fd5b50610193600480360381019061018e919061103f565b610e6c565b6040516101a0919061148d565b60405180910390f35b3480156101b557600080fd5b506101d060048036038101906101cb919061103f565b610e84565b6040516101dd9190611352565b60405180910390f35b3480156101f257600080fd5b5061020d6004803603810190610208919061103f565b610eb7565b60405161021a919061148d565b60405180910390f35b34801561022f57600080fd5b5061024a600480360381019061024591906110cb565b610ecf565b005b34801561025857600080fd5b50610273600480360381019061026e919061103f565b610ffd565b604051610280919061148d565b60405180910390f35b60001515600660009054906101000a900460ff161515146102df576040517f08c379a00000000000000000000000000000000000000000000000000000000081526004016102d69061146d565b60405180910390fd5b6001600660006101000a81548160ff0219169083151502179055506000808273ffffffffffffffffffffffffffffffffffffffff1673ffffffffffffffffffffffffffffffffffffffff16815260200190815260200160002060009054906101000a900473ffffffffffffffffffffffffffffffffffffffff1673ffffffffffffffffffffffffffffffffffffffff163373ffffffffffffffffffffffffffffffffffffffff16146103c6576040517f08c379a00000000000000000000000000000000000000000000000000000000081526004016103bd906113ad565b60405180910390fd5b6000600160008373ffffffffffffffffffffffffffffffffffffffff1673ffffffffffffffffffffffffffffffffffffffff1681526020019081526020016000205411610448576040517f08c379a000000000000000000000000000000000000000000000000000000000815260040161043f906113ed565b60405180910390fd5b42600260008373ffffffffffffffffffffffffffffffffffffffff1673ffffffffffffffffffffffffffffffffffffffff1681526020019081526020016000205411156104ca576040517f08c379a00000000000000000000000000000000000000000000000000000000081526004016104c19061136d565b60405180910390fd5b600560008273ffffffffffffffffffffffffffffffffffffffff1673ffffffffffffffffffffffffffffffffffffffff16815260200190815260200160002054600160008373ffffffffffffffffffffffffffffffffffffffff1673ffffffffffffffffffffffffffffffffffffffff168152602001908152602001600020541061070b573373ffffffffffffffffffffffffffffffffffffffff166108fc600560008473ffffffffffffffffffffffffffffffffffffffff1673ffffffffffffffffffffffffffffffffffffffff168152602001908152602001600020549081150290604051600060405180830381858888f193505050501580156105d4573d6000803e3d6000fd5b50600560008273ffffffffffffffffffffffffffffffffffffffff1673ffffffffffffffffffffffffffffffffffffffff16815260200190815260200160002054600160008373ffffffffffffffffffffffffffffffffffffffff1673ffffffffffffffffffffffffffffffffffffffff1681526020019081526020016000206000828254610663919061159a565b9250508190555062015180600460008373ffffffffffffffffffffffffffffffffffffffff1673ffffffffffffffffffffffffffffffffffffffff168152602001908152602001600020546106b89190611540565b426106c391906114b9565b600260008373ffffffffffffffffffffffffffffffffffffffff1673ffffffffffffffffffffffffffffffffffffffff168152602001908152602001600020819055506107d7565b3373ffffffffffffffffffffffffffffffffffffffff166108fc600160008473ffffffffffffffffffffffffffffffffffffffff1673ffffffffffffffffffffffffffffffffffffffff168152602001908152602001600020549081150290604051600060405180830381858888f19350505050158015610790573d6000803e3d6000fd5b506000600160008373ffffffffffffffffffffffffffffffffffffffff1673ffffffffffffffffffffffffffffffffffffffff168152602001908152602001600020819055505b6000600660006101000a81548160ff02191690831515021790555050565b600073ffffffffffffffffffffffffffffffffffffffff166000803373ffffffffffffffffffffffffffffffffffffffff1673ffffffffffffffffffffffffffffffffffffffff16815260200190815260200160002060009054906101000a900473ffffffffffffffffffffffffffffffffffffffff1673ffffffffffffffffffffffffffffffffffffffff16146108c2576040517f08c379a00000000000000000000000000000000000000000000000000000000081526004016108b99061140d565b60405180910390fd5b600073ffffffffffffffffffffffffffffffffffffffff168473ffffffffffffffffffffffffffffffffffffffff161415610932576040517f08c379a0000000000000000000000000000000000000000000000000000000008152600401610929906113cd565b60405180910390fd5b6000341415610976576040517f08c379a000000000000000000000000000000000000000000000000000000000815260040161096d9061138d565b60405180910390fd5b600082116109b9576040517f08c379a00000000000000000000000000000000000000000000000000000000081526004016109b09061144d565b60405180910390fd5b836000803373ffffffffffffffffffffffffffffffffffffffff1673ffffffffffffffffffffffffffffffffffffffff16815260200190815260200160002060006101000a81548173ffffffffffffffffffffffffffffffffffffffff021916908373ffffffffffffffffffffffffffffffffffffffff16021790555034600160003373ffffffffffffffffffffffffffffffffffffffff1673ffffffffffffffffffffffffffffffffffffffff168152602001908152602001600020819055506201518083610a899190611540565b42610a9491906114b9565b600260003373ffffffffffffffffffffffffffffffffffffffff1673ffffffffffffffffffffffffffffffffffffffff1681526020019081526020016000208190555081600360003373ffffffffffffffffffffffffffffffffffffffff1673ffffffffffffffffffffffffffffffffffffffff1681526020019081526020016000208190555080600460003373ffffffffffffffffffffffffffffffffffffffff1673ffffffffffffffffffffffffffffffffffffffff168152602001908152602001600020819055508134610b6b919061150f565b600560003373ffffffffffffffffffffffffffffffffffffffff1673ffffffffffffffffffffffffffffffffffffffff1681526020019081526020016000208190555050505050565b600073ffffffffffffffffffffffffffffffffffffffff166000803373ffffffffffffffffffffffffffffffffffffffff1673ffffffffffffffffffffffffffffffffffffffff16815260200190815260200160002060009054906101000a900473ffffffffffffffffffffffffffffffffffffffff1673ffffffffffffffffffffffffffffffffffffffff161415610c82576040517f08c379a0000000000000000000000000000000000000000000000000000000008152600401610c799061142d565b60405180910390fd5b60001515600660009054906101000a900460ff16151514610cd8576040517f08c379a0000000000000000000000000000000000000000000000000000000008152600401610ccf9061146d565b60405180910390fd5b6001600660006101000a81548160ff0219169083151502179055503373ffffffffffffffffffffffffffffffffffffffff166108fc600160003373ffffffffffffffffffffffffffffffffffffffff1673ffffffffffffffffffffffffffffffffffffffff168152602001908152602001600020549081150290604051600060405180830381858888f19350505050158015610d78573d6000803e3d6000fd5b506000600160003373ffffffffffffffffffffffffffffffffffffffff1673ffffffffffffffffffffffffffffffffffffffff168152602001908152602001600020819055506000803373ffffffffffffffffffffffffffffffffffffffff1673ffffffffffffffffffffffffffffffffffffffff16815260200190815260200160002060006101000a81549073ffffffffffffffffffffffffffffffffffffffff02191690556000600660006101000a81548160ff021916908315150217905550565b60036020528060005260406000206000915090505481565b60056020528060005260406000206000915090505481565b60016020528060005260406000206000915090505481565b60006020528060005260406000206000915054906101000a900473ffffffffffffffffffffffffffffffffffffffff1681565b60046020528060005260406000206000915090505481565b600073ffffffffffffffffffffffffffffffffffffffff166000803373ffffffffffffffffffffffffffffffffffffffff1673ffffffffffffffffffffffffffffffffffffffff16815260200190815260200160002060009054906101000a900473ffffffffffffffffffffffffffffffffffffffff1673ffffffffffffffffffffffffffffffffffffffff161415610f9d576040517f08c379a0000000000000000000000000000000000000000000000000000000008152600401610f949061142d565b60405180910390fd5b6201518081610fac9190611540565b42610fb791906114b9565b600260003373ffffffffffffffffffffffffffffffffffffffff1673ffffffffffffffffffffffffffffffffffffffff1681526020019081526020016000208190555050565b60026020528060005260406000206000915090505481565b60008135905061102481611668565b92915050565b6000813590506110398161167f565b92915050565b60006020828403121561105157600080fd5b600061105f84828501611015565b91505092915050565b6000806000806080858703121561107e57600080fd5b600061108c87828801611015565b945050602061109d8782880161102a565b93505060406110ae8782880161102a565b92505060606110bf8782880161102a565b91505092959194509250565b6000602082840312156110dd57600080fd5b60006110eb8482850161102a565b91505092915050565b6110fd816115ce565b82525050565b60006111106011836114a8565b91507f63616e206e6f7420636c61696d207965740000000000000000000000000000006000830152602082019050919050565b6000611150600d836114a8565b91507f696e76616c69642076616c7565000000000000000000000000000000000000006000830152602082019050919050565b60006111906019836114a8565b91507f796f7520617265206e6f742074686520696e68657269746f72000000000000006000830152602082019050919050565b60006111d0600f836114a8565b91507f696e76616c6964206164647265737300000000000000000000000000000000006000830152602082019050919050565b6000611210600e836114a8565b91507f6e6f206c6567616379206c6566740000000000000000000000000000000000006000830152602082019050919050565b60006112506018836114a8565b91507f796f7520686176652073657474656420616c72656164792e00000000000000006000830152602082019050919050565b6000611290601d836114a8565b91507f796f7520686176656e27742073657474656420746865206c65676163790000006000830152602082019050919050565b60006112d0601d836114a8565b91507f706572696f6473206d6f737420626967676572207468616e207a65726f0000006000830152602082019050919050565b60006113106010836114a8565b91507f63616e206e6f7420726520656e746572000000000000000000000000000000006000830152602082019050919050565b61134c81611600565b82525050565b600060208201905061136760008301846110f4565b92915050565b6000602082019050818103600083015261138681611103565b9050919050565b600060208201905081810360008301526113a681611143565b9050919050565b600060208201905081810360008301526113c681611183565b9050919050565b600060208201905081810360008301526113e6816111c3565b9050919050565b6000602082019050818103600083015261140681611203565b9050919050565b6000602082019050818103600083015261142681611243565b9050919050565b6000602082019050818103600083015261144681611283565b9050919050565b60006020820190508181036000830152611466816112c3565b9050919050565b6000602082019050818103600083015261148681611303565b9050919050565b60006020820190506114a26000830184611343565b92915050565b600082825260208201905092915050565b60006114c482611600565b91506114cf83611600565b9250827fffffffffffffffffffffffffffffffffffffffffffffffffffffffffffffffff038211156115045761150361160a565b5b828201905092915050565b600061151a82611600565b915061152583611600565b92508261153557611534611639565b5b828204905092915050565b600061154b82611600565b915061155683611600565b9250817fffffffffffffffffffffffffffffffffffffffffffffffffffffffffffffffff048311821515161561158f5761158e61160a565b5b828202905092915050565b60006115a582611600565b91506115b083611600565b9250828210156115c3576115c261160a565b5b828203905092915050565b60006115d9826115e0565b9050919050565b600073ffffffffffffffffffffffffffffffffffffffff82169050919050565b6000819050919050565b7f4e487b7100000000000000000000000000000000000000000000000000000000600052601160045260246000fd5b7f4e487b7100000000000000000000000000000000000000000000000000000000600052601260045260246000fd5b611671816115ce565b811461167c57600080fd5b50565b61168881611600565b811461169357600080fd5b5056fea26469706673582212200581245279c0c76f430c19b9b40303d3ade04735434d0764ced9ad6422a907a664736f6c63430008000033",
  "linkReferences": {},
  "deployedLinkReferences": {}
}